:1000000084C70000B3C70000B1C70000AFC700003D
:10001000ADC70000ABC70000A9C70000A7C700001C
:10002000A5C70000A3C70000A1C700009FC700002C
:100030009DC700009BC7000099C7000097C700003C
:1000400095C7000093C7000091C700008FC700004C
:100050008DC700008BC7000089C700000C94930A6D
:1000600085C700000C9492090C9469097FC70000B1
:100070007DC700007BC7000079C7000077C700007C
:1000800075C7000073C7000071C700006FC700008C
:100090006DC700006BC7000069C7000067C700009C
:1000A00065C7000063C7000061C700005FC70000AC
:1000B0005DC700005BC7000059C7000057C70000BC
:1000C00055C7000053C7000051C700004FC70000CC
:1000D0004DC700004BC7000049C7000047C70000DC
:1000E00045C7000007090A09F908FD080309410985
:1000F0000E09120918091C09200926092A092E09C6
:100100004109340938093C090000000000000000E2
:1001100000000000000000000000000000000000DF
:1001200000000000000000000000000000000000CF
:1001300000000000000000000000000000000000BF
:1001400000000000000000000000000000000000AF
:10015000000000000000000000000000000000009F
:10016000000000000000000000000000000000008F
:10017000000000000000000000000000000000007F
:10018000000000000000000000000000000000006F
:10019000000000000000000000000000000000005F
:1001A000000000000000000000000000000000004F
:1001B000000000000000000000000000000000003F
:1001C0000000000000000000000101010101010029
:1001D0000001010101010100000000010100000017
:1001E000000000000000000000000101010101000A
:1001F00000010101010100000001000000000100F8
:1002000000010101010101000000010101010000E4
:1002100000000001010000000000010101010000D8
:1002200000000000000000000000000101010100CA
:1002300000010101010101000000010101010100B3
:1002400000000101010101000001010101010100A3
:100250000000010101010000000100000001000098
:10026000000001010101000000000000000000008A
:10027000000000000000000000000001000100007C
:100280000001010101010100000101000001010064
:10029000000000010100000000000000000000005C
:1002A0000001010000000000000101000001000049
:1002B0000001000000000100000101000001010038
:1002C000000100000000010000000001010000002A
:1002D000000101000001010000000000000000001A
:1002E000000001000000000000010000000000000C
:1002F00000010100000000000001010000000000FA
:1003000000000001010000000001000000000100E9
:1003100000010000000100000001000000000100D9
:1003200000000001000100000000000000000000CB
:1003300000000000010000000000000101000000BA
:1003400000010100000101000000010101000000A6
:10035000000000000000000000010100000000009B
:100360000001010000010000000100000000010088
:100370000001010000010100000100000000010077
:100380000000010101000000000000000001010068
:10039000000000000000000000000100000000005C
:1003A000000100000000000000010100000000004A
:1003B0000001010000000000000000010100000039
:1003C0000001000000000100000101000001000028
:1003D000000100000000010000000000010000001A
:1003E0000000000000000000000001010101010008
:1003F00000000001010000000001010101010100F5
:1004000000000001010000000001010101010100E4
:1004100000010100010101000001010101010000D2
:1004200000010000000001000001010101010100C4
:1004300000010000000001000000000101000000B8
:1004400000000000010100000001010101010100A4
:100450000000000101010000000101010101000094
:100460000001010000000000000101000000000088
:100470000000000101000000000100000000010078
:100480000001000100010000000101010101010063
:100490000000010101010100000000000000000057
:1004A0000000000001000000000000010100000049
:1004B0000001010000000000000000010100000038
:1004C0000000000000000000000101000001010028
:1004D0000001010101000000000100000000010016
:1004E0000001010000000000000100000000010008
:1004F00000000001010000000000010100000000F8
:1005000000000000000000000000000000000100EA
:1005100000010000000000000001010000000000D8
:1005200000010100000000000000000101000000C7
:1005300000010000000001000001000001010000B6
:1005400000010000000001000000000001000000A8
:100550000000000000000000000000010001000099
:100560000000000101000000000101000000000087
:100570000000000101000000000000000000000079
:100580000001010000010100000101000101000063
:100590000001000000000100000101000000000057
:1005A0000001000000000100000000010100000047
:1005B0000001010000000000000000000000000039
:1005C0000000000000000100000100000000000029
:1005D0000001010000000000000101000000000017
:1005E0000000000101000000000100000000010007
:1005F00000010000000100000001000000000100F7
:1006000000000001000100000000000000000000E8
:1006100000000000000000000000000101000000D8
:1006200000010100000000000001010101010100C2
:1006300000000000000000000000010101010100B5
:1006400000010100000100000000010101010000A3
:100650000001010000000000000001010101000094
:10066000000101010101010000010101010101007E
:100670000000000000000000000001010101000076
:10068000000101010101010000000101010101005F
:10069000000001010101010000010101010101004F
:1006A0000000010101010000000100000001000044
:1006B0000001000000000100000000000000000038
:1006C000000000000000000000000000000000002A
:1006D000000000000000000000000000000000001A
:1006E000000000000000000000000000000000000A
:1006F00000000000000000000000000000000000FA
:1007000000000000000000000000000000000000E9
:1007100000000000000000000000000000000000D9
:1007200000000000000000000000000101010100C5
:1007300000000001010101000000010100000001B2
:1007400001000001010101010100000000000000A2
:100750000101010100000001010000010100000190
:10076000010101010100000101010101000000007F
:100770000101000000000000000000000000000077
:100780000000000001010000010100000101000063
:10079000010100000101010001010100000101004F
:1007A0000000000000000000000101000001010045
:1007B0000001010000010100000101000000000033
:1007C0000001010000010100000101010100000021
:1007D0000000000000000000000000000000010117
:1007E0000000000000000101000001010000010103
:1007F00001010101010000010100000000000000F2
:1008000000000001010000010100000101000001E1
:1008100001000001010000000000000101000001D2
:1008200001000001010101000000000000000000C3
:1008300000000000000000000101000000000000B6
:10084000010101010101000001010001000101009D
:100850000001010101010000000000000001010091
:10086000000101000001010000010100000101017F
:10087000010100000001010101010000000001016F
:100880000000000000000000000000000000000068
:10089000000001010001010100000101000001014F
:1008A0000000010100000001010000010100000042
:1008B0000000000000000001010000010100000133
:1008C0000100000101000001010000000000000122
:1008D0000101010000000000010100000000000013
:1008E0000000000000000000000000000101000006
:1008F00001010000010100000101000001010000F0
:1009000000010100000101000000000000000000E3
:1009100000010100000101000000010101010000CF
:1009200000010100000000000001010001010000C1
:1009300000000000000000000000000000000000B7
:1009400000000000000000010101010000000101A1
:100950000000010100000101000000010100000190
:10096000010101010100000000000000010101017E
:100970000000000000010100000000010101010170
:100980000100000101000001010000000101000060
:100990000000000000000000000000000000000057
:1009A000000001010101000000010100000101003F
:1009B000000101000101010000010101000101002D
:1009C000000101000001010000010100000101001F
:1009D0000000010101010000000000000000000013
:1009E0000000000101000000000000010100000003
:1009F00000000101010000000000000101000000F2
:100A000000000001010000000000000101000000E2
:100A100000010101010101000000000000000000D0
:100A200000000101010100000001010000010100BE
:100A300000000000000101000000000001010000B2
:100A400000000101000000000001010000000000A2
:100A50000001010101010100000000000000000090
:100A6000000001010101000000010100000101007E
:100A70000000000000010100000000010101000071
:100A80000000000000010100000101000001010060
:100A90000000010101010000000000000000000052
:100AA0000000000001010000000000010101000041
:100AB0000000010001010000000100000101000030
:100AC000000101010101010000000000010100001E
:100AD0000000000001010000000000000000000014
:100AE00000010101010101000001010000000000FE
:100AF00000010101010100000000000000010100EF
:100B000000000000000101000001010000010100DF
:100B100000000101010100000000000000000000D1
:100B200000000101010100000001010000010100BD
:100B300000010100000000000001010101010000AE
:100B4000000101000001010000010100000101009D
:100B50000000010101010000000000000000000091
:100B6000000101010101010000010100000101007B
:100B70000000000001010000000000000101000071
:100B80000000000101000000000000010100000061
:100B90000000000101000000000000000000000053
:100BA000000001010101000000010100000101003D
:100BB000000101000001010000000101010100002D
:100BC000000101000001010000010100000101001D
:100BD0000000010101010000000000000000000011
:100BE00000000101010100000001010000010100FD
:100BF00000010100000101000000010101010100EC
:100C000000000000000101000001010000010100DE
:100C100000000101010100000000000000000000D0
:100C200000000000000000000000000000000000C4
:100C300000000000000000000000000000000000B4
:100C400000000000000000000000000000000000A4
:100C50000000000000000000000000010101010090
:100C6000000000010101010000000001010101007C
:100C70000000010101010100000001010101010169
:100C80000000000000000000000000000000000064
:100C9000000000000101000001010000010100004E
:100CA000010100000101000001010000010100003C
:100CB000010100000101000000000000010100002E
:100CC0000000000000000000000000000000010122
:100CD0000000000000000101000000000000010110
:100CE00000000101000001010000010100000101FC
:100CF00000000000000001010000000000000000F2
:100D000000000000000000000001010101000000DF
:100D100001010000000000000101000001010000CD
:100D200001010101010000000101010101000000B9
:100D300000000000000000000000000000000000B3
:100D4000000000000000010100000101000000009F
:100D5000000001010000010100000101010100008B
:100D6000000001010000000000000101000000007F
:100D70000000000000000000000000000101000071
:100D8000010100000101000001010000010100005B
:100D9000010100000101000101000000010100004B
:100DA0000000000001010000000000000000000041
:100DB000000000000000000101010100000000012E
:100DC000010101000000000101010100000001011A
:100DD000000001010000010101010101000000000B
:100DE0000000000000000000000021002400270097
:100DF0002A002D003000330001010000040107012A
:100E00000A0100002200250028002B002E003100DE
:100E1000340002010000050108010B0100000A0B6B
:100E200002090C0D0E080703040100000000000079
:100E300000000000000000000000000000000000B2
:100E4000000000000000000012111000000000006F
:100E50000000000000000000000000000000000092
:100E60000000000020002300260029002C002F0095
:100E70003200000100000301060109010505050516
:100E8000070508080808020202020A0A0808040402
:100E90000404010101010101010103030303030330
:100EA0000303040707070C0C0C0C0C0C0C0C0202BF
:100EB000020206060606060606060B0B0B0B0B0BBC
:100EC0000B0B010210202008081020401020408049
:100ED00002010201080402010102040810204080FE
:100EE000804020100804020180040201804020108C
:100EF00008040201080402010102040810204080D5
:100F00000102040810204080301D11241FBECFEFC5
:100F1000D1E2DEBFCDBF00E00CBF13E0A0E0B2E045
:100F2000E0E0FEE300E00BBF02C007900D92A43E9C
:100F3000B107D9F726E0A4EEB3E001C01D92A63AAE
:100F4000B207E1F717E0C5E8D7E000E006C0219757
:100F50000109802FFE010E94DE1EC438D10780E007
:100F60000807A9F70E94B3120C94FE1E49C8CF923D
:100F7000DF92EF92FF920F931F93CF93DF936C0159
:100F80007A018B01C0E0D0E0CE15DF0589F0D801F1
:100F90006D918D01D601ED91FC910190F081E02DD4
:100FA000C6011995892B11F47E0102C02196ECCF60
:100FB000C701DF91CF911F910F91FF90EF90DF90CC
:100FC000CF900895089580E090E00895FC01538D3E
:100FD000448D252F30E0842F90E0821B930B541713
:100FE00010F0CF96089501970895FC01918D828DA0
:100FF000981761F0828DDF01A80FB11D5D968C916D
:10100000928D9F5F9F73928F90E008958FEF9FEF77
:101010000895FC01918D828D981731F0828DE80F33
:10102000F11D858D90E008958FEF9FEF0895FC01ED
:10103000918D228D892F90E0805C9F4F821B9109BA
:101040008F73992708958BE995E0F1DF21E0892BD3
:1010500009F420E0822F0895FC01848DDF01A80FA0
:10106000B11DA35ABF4F2C91848D90E001968F73D0
:101070009927848FA689B7892C93A089B1898C91EF
:1010800080648C93938D848D981306C00288F389B5
:10109000E02D80818F7D80830895EF92FF920F93E2
:1010A0001F93CF93DF93EC0181E0888F9B8D8C8D14
:1010B000981305C0E889F989808185FD23C0F62E43
:1010C0000B8D10E00F5F1F4F0F731127E02E8C8DDB
:1010D000E8120BC00FB607FCFACFE889F9898081C6
:1010E00085FFF5CFCE01B8DFF2CF8B8DFE01E80F83
:1010F000F11DE35AFF4FF0820B8FEA89FB89808153
:10110000806207C0EE89FF896083E889F989808160
:101110008064808381E090E0DF91CF911F910F91F7
:10112000FF90EF900895CF93DF93EC01888D882393
:10113000C1F0EA89FB89808185FD05C0A889B9894C
:101140008C9186FD0EC00FB607FCF5CF808185FF20
:10115000F2CFA889B9898C9185FFEDCFCE017CDFD4
:10116000E8CFDF91CF91089580E090E0892B19F0CE
:101170006ADF811125C080E090E0892B41F080E09A
:1011800090E0892B21F00E94000081111CC080E0BA
:1011900090E0892B41F080E090E0892B21F00E94C3
:1011A0000000811113C080E090E0892BA1F080E065
:1011B00090E0892B81F00E94000081110AC00895FF
:1011C0000E940000D8CF0E940000E1CF0E940000E2
:1011D000EACF0C940000089590E0FC013197E231D1
:1011E000F10508F04EC08827EE58FF4F8F4F0C9442
:1011F000DE1E809180008F7703C0809180008F7DFC
:1012000080938000089580918000877FF9CF84B516
:101210008F7702C084B58F7D84BD08958091B00022
:101220008F7703C08091B0008F7D8093B0000895C8
:10123000809190008F7707C0809190008F7D03C0D0
:1012400080919000877F8093900008958091A00006
:101250008F7707C08091A0008F7D03C08091A00090
:10126000877F8093A0000895809120018F7707C029
:10127000809120018F7D03C080912001877F809322
:10128000200108953FB7F8948091970590919805B3
:10129000A0919905B0919A0526B5A89B05C02F3F4E
:1012A00019F00196A11DB11D3FBFBA2FA92F982F8C
:1012B0008827820F911DA11DB11DBC01CD0142E007
:1012C000660F771F881F991F4A95D1F708950E94CE
:1012D000FA1E1F920F920FB60F9211240BB60F92A7
:1012E0002F933F934F935F936F937F938F939F932E
:1012F000AF93BF93EF93FF938BE995E0ADDEFF9142
:10130000EF91BF91AF919F918F917F916F915F917D
:101310004F913F912F910F900BBE0F900FBE0F90EA
:101320001F9018951F920F920FB60F9211240BB6B3
:101330000F922F938F939F93EF93FF93E091AB05C1
:10134000F091AC058081E091B105F091B20582FD8C
:1013500012C090818091B4058F5F8F732091B50585
:10136000821751F0E091B405F0E0E556FA4F958F01
:101370008093B40501C08081FF91EF919F918F917F
:101380002F910F900BBE0F900FBE0F901F901895CE
:10139000CF93DF93282F30E0F901E45EF14F849181
:1013A000F901EE53F14FD491F901E458F14FC49192
:1013B000CC2389F0811110DFEC2FF0E0EE0FFF1F3E
:1013C000EE59F14FA591B491EC91ED2381E090E0BD
:1013D00021F480E002C080E090E0DF91CF91089599
:1013E0001F93CF93DF93282F30E0F901E45EF14F94
:1013F0008491F901EE53F14FD491F901E458F14F82
:10140000C491CC23C1F0162F8111E6DEEC2FF0E061
:10141000EE0FFF1FEE5FF14FA591B4918FB7F894D7
:10142000111105C09C91ED2FE095E92302C0EC91CC
:10143000ED2BEC938FBFDF91CF911F910895CF9348
:10144000DF9390E0FC01EE53F14F2491FC01E4584E
:10145000F14F8491882361F190E0880F991FFC017E
:10146000E851F24FC591D491FC01EE5FF14FA59187
:10147000B491611109C09FB7F894888120958223A7
:101480008883EC912E230BC0623061F49FB7F894EF
:101490003881822F809583238883EC912E2B2C9387
:1014A0009FBF06C08FB7F894E8812E2B28838FBF8B
:1014B000DF91CF9108958F929F92AF92BF92CF927A
:1014C000DF92EF92FF926B017C01DCDE4B015C014D
:1014D000C114D104E104F104E9F0D4DEDC01CB0154
:1014E00088199909AA09BB09883E9340A105B1054D
:1014F00078F321E0C21AD108E108F10888EE880EDD
:1015000083E0981EA11CB11CC114D104E104F104B4
:1015100021F7DECFFF90EF90DF90CF90BF90AF909C
:101520009F908F9008951F920F920FB60F921124E3
:101530002F933F938F939F93AF93BF938091930586
:1015400090919405A0919505B091960530919205E2
:1015500023E0230F2D3720F40196A11DB11D05C0F6
:1015600026E8230F0296A11DB11D209392058093BA
:10157000930590939405A0939505B093960580915B
:10158000970590919805A0919905B0919A050196BB
:10159000A11DB11D8093970590939805A09399057F
:1015A000B0939A05BF91AF919F918F913F912F91E9
:1015B0000F900FBE0F901F9018952F923F924F9251
:1015C0005F926F927F928F929F92AF92BF92CF92D3
:1015D000DF92EF92FF920F931F93CF93DF931F92AF
:1015E0001F92CDB7DEB78C0149832A83660F771F20
:1015F000F801EA5AFF4FE080F180EE0CFF1CF80181
:10160000CF01801B910B8E159F0514F41192F8CF1A
:101610008981F801E60FF71F81838A818083580151
:1016200084E5A80EB11C60E0F5018081D9DEE00EF2
:10163000F11E4801F2E58F0E911C380180E5680E1D
:10164000711CC701801B910B181619060CF5F701C8
:10165000C2907F01F4013080F301208087E0482EA2
:10166000512CD12CB601042C02C0759567950A94B3
:10167000E2F761707727822DB3DE61E0832DB0DE63
:1016800060E0832DADDEF1E04F1A510858F7D9CF55
:1016900061E0F50180810F900F90DF91CF911F9154
:1016A0000F91FF90EF90DF90CF90BF90AF909F9001
:1016B0008F907F906F905F904F903F902F9090CE43
:1016C000CF92DF92EF92FF920F931F93CF93DF930E
:1016D00077FD22C0FC01EA5AFF4F20813181621759
:1016E0007307D4F4EB017C016B0183E0CC0CDD1CAF
:1016F0008A95E1F701E010E0F801EC0DFD1DEE0D1B
:10170000FF1D178620E0402FBE01C70156DF0F5F87
:101710001F4F0930110581F7DF91CF911F910F9174
:10172000FF90EF90DF90CF9008950F931F938091DB
:1017300079052EDE0197C9F588E075D66093E80338
:101740007093E9038093EA039093EB030091E40321
:101750001091E5032091E6033091E703672B682B96
:10176000692B89F4C901B8016F5F7F4F8F4F9F4F7D
:101770006093E4037093E5038093E6039093E7039B
:101780001F910F9144C603301105210531057CF2EC
:1017900089E592E0C0D51092E4031092E50310921F
:1017A000E6031092E70310927F051F910F910895B1
:1017B000CF9388E0EDDD90937A058093790587E0FB
:1017C000E7DD909378058093770586E0E1DD9093DF
:1017D0007605809375052091790530917A054091C1
:1017E0007B0550917C0560917D0570917E052130CF
:1017F000310509F08AC1411551056105710509F0EE
:101800005EC088E010D66093E8037093E90380938C
:10181000EA039093EB03672B682B692BB9F4809153
:10182000E4039091E503A091E603B091E703BC01C6
:10183000CD016F5F7F4F8F4F9F4F6093E403709395
:10184000E5038093E6039093E703E1D58091E403F9
:101850009091E503A091E603B091E7030397A105FA
:10186000B1050CF4F2C18EED92E055D589EF92E00E
:1018700052D51092E4031092E5031092E603109201
:10188000E70381E090E090930302809302021092BC
:10189000EE031092EF031092F0031092F10381E037
:1018A00090E0A0E0B0E080937B0590937C05A0934E
:1018B0007D05B0937E0589E493E02DD5C6C1413006
:1018C00051056105710509F020C188E0ACD5609330
:1018D000E8037093E9038093EA039093EB03672B8B
:1018E000682B692BB9F48091E4039091E503A091F2
:1018F000E603B091E703BC01CD016F5F7F4F8F4FCF
:101900009F4F6093E4037093E5038093E603909305
:10191000E7037DD58091E4039091E503A091E60370
:10192000B091E7030397A105B1050CF48EC18FE5D3
:1019300093E0F1D41092E4031092E5031092E603D1
:101940001092E70360E070E08EE496E0B9DE61E0BB
:1019500070E08EE496E0B4DE10927B0510927C0578
:1019600010927D0510927E058091020290910302F3
:101970008130910529F48CEB92E0A0E0B0E016C034
:101980008230910529F486E292E0A0E0B0E00EC03A
:101990008330910529F480E991E0A0E0B0E006C031
:1019A000049761F48AEF90E0A0E0B0E08093EE034A
:1019B0009093EF03A093F003B093F1038FEF9FEFA9
:1019C00090934B0680934A0690934906809348066D
:1019D0001092ED031092EC0310927A0510927905A3
:1019E0001092E8031092E9031092EA031092EB03BD
:1019F0001092E4031092E5031092E6031092E703BD
:101A00001092740510927305E0917205F0E0ED50AC
:101A1000FC4F1292DF01A058BF4F1C92A058BF4F3D
:101A20001C9283E0E23FF807A1F710927205109232
:101A30004106109240060E94621E27E030E040E01E
:101A400050E00E946E1EDC01CB010196A11DB11D6C
:101A500090934306809342060E94621E24E030E089
:101A600040E050E00E946E1EDC01CB010196A11DFA
:101A7000B11D90934706809346060E94621E81E046
:101A800090E09093450680934406609140067091E3
:101A90004106609338067093390640914206509192
:101AA000430640933A0650933B06209146063091F8
:101AB000470630933F0620933E0690933D06809361
:101AC0003C064093F20360937204C1E0C093F204B9
:101AD00021E0CED3C0937F0586E793E00AD48091BE
:101AE000020290910302EAD48BE893E002D4609161
:101AF000EE037091EF038091F0039091F1034AE0BF
:101B000016D487E792E0F5D3A0C0209177053091F5
:101B100078052130310509F046C041305105610595
:101B2000710509F0AAC187E07ED46093E803709341
:101B3000E9038093EA039093EB03672B682B692BEF
:101B400099F480918E0590918F05A0919005B091A8
:101B500091050196A11DB11D80938E0590938F056F
:101B6000A0939005B093910580918E0590918F057B
:101B7000A0919005B09191050197A105B10509F0DB
:101B800064C010928E0510928F05109290051092ED
:101B900091058091020290910302843091050CF02E
:101BA0004CC0019646C0019709F04FC04130510525
:101BB0006105710509F049C086E035D46093E803FA
:101BC0007093E9038093EA039093EB03672B682BF0
:101BD000692B99F480918E0590918F05A0919005C5
:101BE000B09191050196A11DB11D80938E05909332
:101BF0008F05A0939005B093910580918E059091EB
:101C00008F05A0919005B09191050197A105B105AF
:101C1000E1F410928E0510928F05109290051092AB
:101C200091058091020290910302823091052CF07F
:101C30000197909303028093020286E993E06BD3AD
:101C4000809102029091030239D480917B0590919A
:101C50007C05A0917D05B0917E050197A105B10598
:101C600009F00EC160E070E08EE496E029DD61E0ED
:101C700070E08EE496E024DD40E060E070E080E01B
:101C800090E0FDD34CE361E070E081E090E0F7D3B9
:101C900046E662E070E081E090E0F1D34EE663E07A
:101CA00070E081E090E0EBD346E764E070E081E033
:101CB00090E0E5D346E665E070E081E090E0DFD3B8
:101CC00046E666E070E081E090E0D9D34CE367E05F
:101CD00070E081E090E0D3D3609100027091010246
:101CE000072E000C880B990BE6DB80910202909185
:101CF00003028130910531F540E060E070E080E062
:101D000090E0BDD348E161E070E080E090E0B7D3BF
:101D100048E162E070E080E090E0B1D348E363E046
:101D200070E080E090E0ABD348E164E070E080E0F8
:101D300090E0A5D348E165E070E080E090E09FD3BB
:101D400048E128C08230910561F540E060E070E034
:101D500080E090E094D34CE361E070E080E090E0BC
:101D60008ED346E662E070E080E090E088D346E003
:101D700063E070E080E090E082D34CE064E070E0EB
:101D800080E090E07CD340E365E070E080E090E0AC
:101D900076D340E666E070E080E090E070D34EE7F6
:101DA0005DC08330910561F540E060E070E080E067
:101DB00090E065D34CE361E070E080E090E05FD3B9
:101DC00046E662E070E080E090E059D346E063E0F0
:101DD00070E080E090E053D34CE164E070E080E09C
:101DE00090E04DD346E065E070E080E090E047D3BE
:101DF00046E666E070E080E090E041D34CE32EC020
:101E0000049709F03DC040E060E070E080E090E0C1
:101E100036D34CE061E070E080E090E030D34CE1FC
:101E200062E070E080E090E02AD34CE263E070E092
:101E300080E090E024D34CE464E070E080E090E047
:101E40001ED34EE765E070E080E090E018D34CE0F0
:101E500066E070E080E090E012D34CE067E070E074
:101E600080E090E00CD36091000270910102072E97
:101E7000000C880B990BCF911ECB019709F496CEDD
:101E8000CF9108952F923F924F925F926F927F92DF
:101E90008F929F92AF92BF92CF92DF92EF92FF927A
:101EA0000F931F93CF93DF93CDB7DEB72A970FB66B
:101EB000F894DEBF0FBECDBF8436910508F0C4C0D4
:101EC0002C012AE030E0B9010E94CB1EFC01CB01BD
:101ED000B9010E94CB1E3C01CF0126E0880F991F5B
:101EE0002A95E1F798878F83D30136E0AA0FBB1FAD
:101EF0003A95E1F7BC83AB83A12CB12C1A861986E5
:101F000060E070E0CB01D7DA09851A850A0D1B1D48
:101F1000C801C4976801BCE2CB1AD108EAE04E16AA
:101F200051040CF06C01C60108979A838983085EFE
:101F3000134FAB81BC81AC0DBD1DBE83AD83812C25
:101F4000912CE12CF12C2F8038842C0C3D1CB8E016
:101F50002B1A3108E3E3AE16B104CCF4F8018491F6
:101F600021E0811101C020E049855A85B70180E058
:101F700090E07ED1F8013797E49121E0E11101C0B2
:101F800020E049855A85B70181E090E071D1F8E001
:101F9000CF16D10430F461147104B9F0ED81FE81E3
:101FA00005C089819A81089780F4F101E80DF91D37
:101FB000E856F64FE49121E0E11101C020E04985A7
:101FC0005A85B70180E090E053D19FEFE91AF90AF2
:101FD000A8E08A0E911C065C1F4FB8E0EB16F104D6
:101FE00009F0B8CFE985FA853196FA87E9873897FD
:101FF00009F086CFFFEFAF1ABF0A2AE4A216B10498
:1020000009F07CCF60E070E08EE496E059DB61E09F
:1020100070E08EE496E02A960FB6F894DEBF0FBE0D
:10202000CDBFDF91CF911F910F91FF90EF90DF9087
:10203000CF90BF90AF909F908F907F906F905F9068
:102040004F903F902F903CCB2A960FB6F894DEBF6E
:102050000FBECDBFDF91CF911F910F91FF90EF90F9
:10206000DF90CF90BF90AF909F908F907F906F90B8
:102070005F904F903F902F900895CF92DF92EF9214
:10208000FF920F931F93CF93DF9381E080937305AB
:10209000C12CD12CC0E0D0E060E070E0CB010BDAC5
:1020A0008E010C0D1D1D0853194FE12CF12CF80168
:1020B000849121E0811101C020E0AE01B70180E0F0
:1020C00090E0D6D0F8013797E49121E0E11101C00A
:1020D00020E0AE01B70181E090E0CAD0FFEFEF1A37
:1020E000FF0A065A1F4F88E0E816F10401F721960F
:1020F000C830D10589F6EFEFCE1ADE0AF3E5CF1628
:10210000D10409F0C7CF8091EC039091ED03BADEC2
:102110001092ED031092EC0340914A0650914B0649
:10212000609148067091490620E080914C0690919C
:102130004D069ED08DE993E0EED060E070E08EE435
:1021400096E0BEDA61E070E08EE496E0B9DA1092D3
:102150007F05DF91CF911F910F91FF90EF90DF905E
:10216000CF9026CBCF93DF93409142065091430608
:10217000609140067091410621E080914406909163
:10218000450676D0809172054091420650914306F3
:102190006091400670914106A0914406B0914506B9
:1021A0008823E1F0E82FF0E0EE50FC4F208130E092
:1021B0004217530789F4EF01C058DF4F288130E000
:1021C0006217730749F4F395208130E0A217B30733
:1021D00019F4DF91CF9151CF8150E2CF40913A066F
:1021E00050913B06609138067091390620E080914D
:1021F0003C0690913D063CD0C0917205C11126C0AD
:10220000E0917205F0E0EE50FC4F808190E09093F9
:102210003B0680933A06DF01A058BF4F8C9190E0B7
:102220009093390680933806F395808190E09093DF
:102230003D0680933C066091EE037091EF03809120
:10224000F0039091F103DF91CF9135C9EC2FF0E0CD
:10225000EE50FC4F408150E0DF01A058BF4F6C9121
:1022600070E0F395808121E090E002D0C150C6CFAC
:10227000CF93DF9397FD3AC0E091A406F091A506B5
:102280008E179F079CF56830710580F54830510521
:1022900068F5EC0133E0CC0FDD1F3A95E1F7E0E89B
:1022A000F0E002C0F595E7954A95E2F7DE01A60F4A
:1022B000B71FA25BB94F222329F050962C9150975B
:1022C000E22B05C0E09550962C915097E223509652
:1022D000EC93C25BD94FC60FD71F41E0460F288948
:1022E000BC018EE496E0DF91CF9167C9DF91CF9179
:1022F0000895009769F0FC0101900020E9F73197FB
:10230000AF01481B590BBC018BE995E00C94B70752
:1023100080E090E00895CF93DF93EBDFEC0187E757
:1023200092E0E7DF8C0F9D1FDF91CF9108958F9290
:102330009F92AF92BF920F931F93CF93DF93CDB72E
:10234000DEB7A1970FB6F894DEBF0FBECDBF19A2BE
:10235000423008F44AE08E010F5D1F4F842E912C0D
:10236000A12CB12CA50194010E949A1EE62FB9015F
:10237000CA0101501109EA3014F4E05D01C0E95CC2
:10238000D801EC93232B242B252B61F7C801B1DF57
:10239000A1960FB6F894DEBF0FBECDBFDF91CF91EF
:1023A0001F910F91BF90AF909F908F900895CF9203
:1023B000DF92EF92FF92CF93DF9397FF20C06B01E4
:1023C0007C01E0919B05F0919C050190F081E02D4E
:1023D0006DE28BE995E01995EC0166277727CB0133
:1023E0006C197D098E099F094AE0A1DF8C0F9D1FA2
:1023F000DF91CF91FF90EF90DF90CF9008954AE06A
:10240000DF91CF91FF90EF90DF90CF9090CFCF935F
:10241000DF93CDDFEC0187E792E06BDF8C0F9D1F30
:10242000DF91CF9108950F931F9390E0FC01EE533D
:10243000F14F6491FC01E458F14FE491F0E0EE0FAC
:10244000FF1FEE59F14F8591949100E412E42FE0C3
:1024500030E0462F43D0611571058105910549F0A3
:10246000DC01CB010196A11DB11DBC01CD019F7006
:1024700003C060E070E0CB011F910F910895242FFD
:1024800097FD1BC04091A4065091A506841795079F
:10249000A4F46830710588F4FC0133E0EE0FFF1FEF
:1024A0003A95E1F7E25BF94FE60FF71F208B41E029
:1024B000460FBC018EE496E080C80895CF93DF9369
:1024C000BC01990F880B990B72DFEC0187E792E052
:1024D00010DF8C0F9D1FDF91CF910895CF92DF9277
:1024E000EF92FF920F931F93E82FF92F05C0015031
:1024F00011092109310961F1908196239417B9F3EB
:1025000005C0015011092109310911F1908196236B
:102510009413F7CFC12CD12CE12CF12C0AC08FEFF2
:10252000C81AD80AE80AF80A0C151D052E053F0539
:1025300079F080818623841791F36C2D7D2D8E2D6B
:102540009F2D1F910F91FF90EF90DF90CF900895F6
:1025500060E070E080E090E01F910F91FF90EF90BD
:10256000DF90CF900895789484B5826084BD84B55F
:10257000816084BD85B5826085BD85B5816085BD7E
:1025800080916E00816080936E0010928100809136
:1025900081008260809381008091810081608093BE
:1025A0008100809180008160809380008091B100E3
:1025B00084608093B1008091B00081608093B0000E
:1025C0008091910082608093910080919100816060
:1025D0008093910080919000816080939000809121
:1025E000A10082608093A1008091A100816080930E
:1025F000A1008091A00081608093A00080912101C2
:10260000826080932101809121018160809321016A
:102610008091200181608093200180917A00846004
:1026200080937A0080917A00826080937A00809112
:102630007A00816080937A0080917A00806880932C
:102640007A001092C10060E08BE00E941F0A60E0F7
:102650008AE00E941F0A60E089E00E941F0AE09160
:10266000AB05F091AC0582E08083E091A705F09185
:10267000A8051082E091A905F091AA058FEC80834E
:102680001092B305E091AF05F091B00586E080832C
:10269000E091AD05F091AE05808180618083E0918D
:1026A000AD05F091AE05808188608083E091AD0535
:1026B000F091AE05808180688083E091AD05F09156
:1026C000AE0580818F7D808360E087E00E941F0AD5
:1026D00060E086E00E941F0A60E085E00E941F0A19
:1026E00060E084E00E941F0A61E083E00E941F0A0C
:1026F00060E088E00E941F0A8091A4069091A506E0
:102700001816190644F421E04CE060E070E08EE415
:1027100096E00E94DD0A8091A4069091A506181605
:10272000190644F428E04AE060E070E08EE496E0A8
:102730000E94DD0A60E070E08EE496E00E94600B8B
:102740008091A4069091A506029744F021E04CE008
:1027500061E070E08EE496E00E94DD0A8091A406BC
:102760009091A506029744F028E04AE061E070E00D
:102770008EE496E00E94DD0A61E070E08EE496E06F
:102780000E94600B8AE192E0C6DD109280051092F3
:102790008105109282051092830588E0482E512C05
:1027A000612C712C92E0C92ED12CE12CF12C80915E
:1027B0007F05811117C680917B0590917C05A091C2
:1027C0007D05B0917E05892B8A2B8B2B09F00AC6DB
:1027D00060E070E08EE496E00E94600B61E070E0E3
:1027E0008EE496E00E94600B8BE00E94C8098C0189
:1027F0008AE00E94C809EC0189E00E94C80989E0CA
:102800000E94C809019759F488EC90E09093010266
:102810008093000210928505109284050CC084EF0D
:1028200091E090930102809300028AE090E09093FF
:10283000850580938405012B09F002C18BE0219767
:1028400009F07BC00E94C8098AE00E94C80989E09B
:102850000E94C809812C912CC0E0D0E060918405D1
:1028600070918505072E000C880B990B0E945B0A5E
:10287000809179050E94C809019751F588E0D3DD60
:102880006093E8037093E9038093EA039093EB036A
:102890000091E4031091E5032091E6033091E703F2
:1028A000672B682B692B09F481C0033011052105C2
:1028B0003105F4F289E592E02EDD1092E4031092E6
:1028C000E5031092E6031092E70310927F0588C596
:1028D0008E01080D191D085F1E4FA12CB12CF801A7
:1028E000849121E0811101C020E0AE01B50180E0BA
:1028F00090E0BEDCF8013797E49121E0E11101C0DE
:1029000020E0AE01B50181E090E0B2DCFFEFAF1A4C
:10291000BF0A08541F4F28E0A216B10401F7219600
:10292000C830D10509F09ACF4FEF841A940A81EB91
:102930008816910409F090CF53C50E94C8098AE017
:102940000E94C80989E00E94C809812C912CC0E02E
:10295000D0E06091840570918505072E000C880BEE
:10296000990B0E945B0A06C0033011052105310551
:102970000CF0A0CF809179050E94C809019731F52C
:1029800088E051DD6093E8037093E9038093EA03E4
:102990009093EB030091E4031091E5032091E6038B
:1029A0003091E703672B682B692BF1F6C901B80159
:1029B0006F5F7F4F8F4F9F4F6093E4037093E503EA
:1029C0008093E6039093E70322DD0AC58E01081980
:1029D0001909085F1E4FA12CB12C15019FEF291A70
:1029E000390AF801E654FF4FE49121E0E11101C0FA
:1029F00020E0AE01B50180E090E03ADCF801EF5450
:102A0000FF4FE49121E0E11101C020E0AE01B501EA
:102A100081E090E02DDC08541F4F5101E8E02E16B4
:102A20003104D9F62196C830D10509F092CFFFEFD5
:102A30008F1A9F0A21EB8216910409F088CFD0C427
:102A40000E94950B0E94950B40E060E070E080E0F2
:102A500090E015DD42E961E070E081E090E00FDD9B
:102A600044E562E070E081E090E009DD48E363E086
:102A700070E081E090E003DD4EEF64E070E081E023
:102A800090E0FDDC48E365E070E081E090E0F7DC99
:102A900044E566E070E081E090E0F1DC42E967E067
:102AA00070E081E090E0EBDC809000029090010209
:102AB000092C000CAA08BB08C501B4010E945B0ADE
:102AC00040E060E070E080E090E0D9DC4EE761E05B
:102AD00070E081E090E0D3DC48E162E070E081E00A
:102AE00090E0CDDC48E163E070E081E090E0C7DC9D
:102AF00048E164E070E081E090E0C1DC48E165E03D
:102B000070E081E090E0BBDC48E166E070E081E0ED
:102B100090E0B5DC48E167E070E081E090E0AFDC98
:102B2000C501B4010E945B0A0E94950B40E060E081
:102B300070E080E090E0A3DC48E761E070E081E0D5
:102B400090E09DDC44E462E070E081E090E097DC9E
:102B500044E463E070E081E090E091DC4CE764E005
:102B600070E081E090E08BDC40E465E070E081E0C3
:102B700090E085DC40E466E070E081E090E07FDC9E
:102B800040E467E070E081E090E079DC6091000271
:102B900070910102072E000C880B990B0E945B0AB2
:102BA0000E94950B40E060E070E080E090E067DC20
:102BB0004CE061E070E081E090E061DC44E162E0E3
:102BC00070E081E090E05BDC44E263E070E081E093
:102BD00090E055DC44E064E070E081E090E04FDCA0
:102BE00044E065E070E081E090E049DC44E066E0CC
:102BF00070E081E090E043DC44E067E070E081E079
:102C000090E03DDC6091000270910102072E000C03
:102C1000880B990B0E945B0A0E94950B40E060E0D4
:102C200070E080E090E02BDC40E061E070E081E06B
:102C300090E025DC40E062E070E081E090E01FDCA5
:102C400040E063E070E081E090E019DC4EE764E092
:102C500070E081E090E013DC40E065E070E081E04E
:102C600090E00DDC40E066E070E081E090E007DCA1
:102C700040E067E070E081E090E001DC60910002FC
:102C800070910102072E000C880B990B0E945B0AC1
:102C90000E94950B40E060E070E080E090E0EFDBA8
:102CA0004EE761E070E081E090E0E9DB40E462E063
:102CB00070E081E090E0E3DB40E463E070E081E01D
:102CC00090E0DDDB4EE564E070E081E090E0D7DB92
:102CD00042E465E070E081E090E0D1DB42E466E050
:102CE00070E081E090E0CBDB4AE767E070E081E0F4
:102CF00090E0C5DB6091000270910102072E000C8C
:102D0000880B990B0E945B0A0E94950B40E060E0E3
:102D100070E080E090E0B3DB48E761E070E081E0E4
:102D200090E0ADDB44E462E070E081E090E0A7DB9E
:102D300044E463E070E081E090E0A1DB48E764E018
:102D400070E081E090E09BDB48E465E070E081E0CA
:102D500090E095DB44E466E070E081E090E08FDB9A
:102D600042E467E070E081E090E089DB609100027E
:102D700070910102072E000C880B990B0E945B0AD0
:102D80000E94950B40E060E070E080E090E077DB2F
:102D900042E461E070E081E090E071DB42E462E0F7
:102DA00070E081E090E06BDB42E463E070E081E0A2
:102DB00090E065DB42E464E070E081E090E05FDB9E
:102DC00042E465E070E081E090E059DB42E466E0D7
:102DD00070E081E090E053DB4CE367E070E081E07D
:102DE00090E04DDB6091000270910102072E000C13
:102DF000880B990B0E945B0A0E94950B40E060E0F3
:102E000070E080E090E03BDB48E761E070E081E06B
:102E100090E035DB44E462E070E081E090E02FDB9D
:102E200044E463E070E081E090E029DB4CE764E09B
:102E300070E081E090E023DB40E465E070E081E059
:102E400090E01DDB40E466E070E081E090E017DB9D
:102E500040E467E070E081E090E011DB6091000207
:102E600070910102072E000C880B990B0E945B0ADF
:102E70000E94950B40E060E070E080E090E0FFDAB7
:102E800048E361E070E081E090E0F9DA44E462E078
:102E900070E081E090E0F3DA44E463E070E081E028
:102EA00090E0EDDA44E464E070E081E090E0E7DA9D
:102EB00044E465E070E081E090E0E1DA44E466E05B
:102EC00070E081E090E0DBDA48E367E070E081E009
:102ED00090E0D5DA6091000270910102072E000C9B
:102EE000880B990B0E945B0A0E94950B40E060E002
:102EF00070E080E090E0C3DA4CE061E070E081E0F7
:102F000090E0BDDA44E162E070E081E090E0B7DAA1
:102F100044E263E070E081E090E0B1DA44E064E034
:102F200070E081E090E0ABDA44E065E070E081E0E1
:102F300090E0A5DA44E066E070E081E090E09FDA9E
:102F400044E067E070E081E090E099DA8090000270
:102F500090900102092C000CAA08BB08C501B4011D
:102F60000E945B0A40E060E070E080E090E087DA79
:102F700048E361E070E081E090E081DA44E462E0FF
:102F800070E081E090E07BDA48E063E070E081E0AF
:102F900090E075DA40E164E070E081E090E06FDAA3
:102FA00040E265E070E081E090E069DA40E466E0EC
:102FB00070E081E090E063DA4CE767E070E081E088
:102FC00090E05DDAC501B4010E945B0A40E060E078
:102FD00070E080E090E053DA40E061E070E081E092
:102FE00090E04DDA40E062E070E081E090E047DAA6
:102FF00040E063E070E081E090E041DA4EE764E0B9
:1030000070E081E090E03BDA40E065E070E081E074
:1030100090E035DA40E066E070E081E090E02FDAA1
:1030200040E067E070E081E090E029DAC501B4019A
:103030000E945B0A40E060E070E080E090E01FDA10
:1030400048E361E070E081E090E019DA44E462E096
:1030500070E081E090E013DA40E463E070E081E04A
:1030600090E00DDA48E764E070E081E090E007DA94
:1030700044E065E070E081E090E001DA44E466E07D
:1030800070E081E090E0FBD948E367E070E081E028
:1030900090E0F5D9C501B4010E945B0A40E060E010
:1030A00070E080E090E0EBD94CE761E070E081E017
:1030B00090E0E5D940E462E070E081E090E0DFD9A3
:1030C00040E463E070E081E090E0D9D948E764E053
:1030D00070E081E090E0D3D940E465E070E081E009
:1030E00090E0CDD940E466E070E081E090E0C7D99F
:1030F0004CE767E070E081E090E0C1D9C501B40120
:103100000E945B0A40E060E070E080E090E0B7D9A8
:1031100048E361E070E081E090E0B1D944E462E02E
:1031200070E081E090E0ABD940E463E070E081E0E2
:1031300090E0A5D940E464E070E081E090E09FD9A0
:1031400040E465E070E081E090E099D944E466E015
:1031500070E081E090E093D948E367E070E081E0BF
:1031600090E08DD9C501B4010E945B0A40E060E0A7
:1031700070E080E090E083D948E361E070E081E0B6
:1031800090E07DD944E462E070E081E090E077D99E
:1031900040E463E070E081E090E071D940E464E0F5
:1031A00070E081E090E06BD940E465E070E081E0A0
:1031B00090E065D944E466E070E081E090E05FD99A
:1031C00048E367E070E081E090E059D9C501B401BF
:1031D0000E945B0A40E060E070E080E090E04FD940
:1031E0004CE761E070E081E090E049D940E162E0C5
:1031F00070E081E090E043D940E163E070E081E07D
:1032000090E03DD940E164E070E081E090E037D9A2
:1032100040E165E070E081E090E031D940E166E0B6
:1032200070E081E090E02BD94CE767E070E081E04E
:1032300090E025D9C501B4010E945B0A40E060E03E
:1032400070E080E090E01BD948E361E070E081E04D
:1032500090E015D944E462E070E081E090E00FD99D
:1032600044E463E070E081E090E009D944E464E084
:1032700070E081E090E003D944E465E070E081E033
:1032800090E0FDD844E466E070E081E090E0F7D89B
:1032900048E367E070E081E090E0F1D8C501B40157
:1032A0000E945B0A40E060E070E080E090E0E7D8D8
:1032B00042E461E070E081E090E0E1D840E662E065
:1032C00070E081E090E0DBD842E563E070E081E00F
:1032D00090E0D5D84AE464E070E081E090E0CFD897
:1032E00046E465E070E081E090E0C9D842E466E041
:1032F00070E081E090E0C3D842E467E070E081E0F4
:1033000090E0BDD8C501B4010E945B0A40E060E0D6
:1033100070E080E090E0B3D848E161E070E081E0E7
:1033200090E0ADD844E262E070E081E090E0A7D8A0
:1033300042E463E070E081E090E0A1D84EE764E011
:1033400070E081E090E09BD842E465E070E081E0CD
:1033500090E095D842E466E070E081E090E08FD89C
:1033600042E467E070E081E090E089D8C501B401F3
:103370000E945B0A40E060E070E080E090E07FD86F
:1033800042E961E070E081E090E079D844E562E0F4
:1033900070E081E090E073D848E363E070E081E0A2
:1033A00090E06DD84EEF64E070E081E090E067D887
:1033B00048E365E070E081E090E061D844E566E0D4
:1033C00070E081E090E05BD842E967E070E081E086
:1033D00090E055D8C501B4010E945B0A0E94950B8C
:1033E0000E94D80B80917F0581110EC080917B05D2
:1033F00090917C05A0917D05B0917E050197A10576
:10340000B10511F40E94D80B80917F05882309F43F
:10341000E1C2809173058111FAC080917405811118
:10342000F6C040914A0650914B0660914806709153
:10343000490621E080914C0690914D060E9438117A
:1034400080914806909149068F3F4FEF940789F08D
:1034500020914A0630914B062F3FEFEF3E0749F08F
:1034600060914C0670914D066F3FFFEF7F0709F0AA
:1034700048C028D426E030E040E050E02FD4DC0102
:10348000CB010196A11DB11D90934B0680934A0676
:1034900019D4A301920122D470934906609348067F
:1034A00011D4A70196011AD4DC01CB019C019093A1
:1034B0004D0680934C061091720540914A0650913A
:1034C0004B066091480670914906E12FF0E0EE50FE
:1034D000FC4FC081D0E04C175D0709F07FC2EF01BF
:1034E000C058DF4FC881D0E06C177D0709F076C265
:1034F000F395E081F0E02E173F0709F06FC21150FD
:10350000E4CF40914206509143064217530709F019
:103510007EC020914006309141062817390709F0F6
:1035200076C080914406909145068617970709F06A
:103530006EC060913A066093890560913806609389
:10354000880560913C066093870550933B06409345
:103550003A06309339062093380690933D068093BF
:103560003C06E0917205EF5FE0937205F0E0EE50EB
:10357000FC4F4083DF01A058BF4F2C93F39580830D
:103580008FEF9FEF90934B0680934A0690934906E6
:10359000809348068091EE039091EF03A091F00391
:1035A000B091F1034497A109B1098093EE03909380
:1035B000EF03A093F003B093F1038EE592E00E9435
:1035C00079116091EE037091EF038091F003909177
:1035D000F1034AE00E9497118091EC039091ED0372
:1035E00001969093ED038093EC038CE692E00E94A9
:1035F00079116091EC037091ED03072E000C880B9C
:10360000990B0E94D71187E792E00E94791188E018
:103610000E94C8094C0190937A058093790587E050
:103620000E94C8095C01909378058093770586E035
:103630000E94C8098C01909376058093750585E0FA
:103640000E94C809EC0190938D0580938C0584E05D
:103650000E94C80990938B0580938A0521E0A216E9
:10366000B10489F4209174052111F6C120917305EC
:1036700021112BC061E083E00E94F009B09247065F
:10368000A0924606CDC0012B79F02091740521113E
:1036900037C02091730521111AC061E083E00E94B8
:1036A000F00982E090E025C0CD2B99F020917405BF
:1036B000211126C020917305211120C061E083E013
:1036C0000E94F00983E090E014C0012B11F7CD2B8C
:1036D00089F7892BA9F080917405811111C080911F
:1036E000730581110DC061E083E00E94F00984E060
:1036F00090E0909347068093460692C0892B79F715
:103700008A94892849F588E00E9413126093E8039F
:103710007093E9038093EA039093EB03672B682B84
:10372000692B09F07DC08091E4039091E503A0919D
:10373000E603B091E703BC01CD016F5F7F4F8F4F70
:103740009F4F6093E4037093E5038093E6039093A7
:10375000E7030E94071264C060E083E00E94F00962
:103760008091E4039091E503A091E603B091E70313
:1037700081309105A105B10509F040C08091740523
:1037800091E08927809374058823D1F08AE792E03D
:103790000E948B1140914A0650914B066091480659
:1037A0007091490620E080914C0690914D060E9450
:1037B00038118091EC039091ED030E94420F15C0E7
:1037C00088E892E00E948B1140914A0650914B0686
:1037D000609148067091490621E080914C069091D5
:1037E0004D060E9438110E94B2101092E40310920C
:1037F000E5031092E6031092E70312C00397A105B8
:10380000B10574F087E992E00E948B111092E403F5
:103810001092E5031092E6031092E7030E943D1018
:10382000809174058111D6C0809173058111D2C039
:10383000809186058111109286052091460630916F
:10384000470622303105F1F024F42130310561F0D2
:103850005CC0809142069091430623303105F1F01F
:1038600024303105C1F151C080914006909141064C
:103870000197909341068093400697FF46C00E94AF
:103880003D10A8C08091400690914106019690930A
:103890004106809340060897C4F1F1CF01979093B9
:1038A00043068093420697FF30C080914406909172
:1038B00045068130910519F3892B39F581E090E0B7
:1038C000909345068093440687E090E090934306EA
:1038D000809342061AC00196909343068093420655
:1038E00008979CF08091440690914506813091059F
:1038F00049F4109243061092420610924506109227
:10390000440603C0892B09F4BACF809142069091F6
:10391000430620914A0630914B0682179307C9F45B
:103920004091400650914106209148063091490649
:103930004217530771F44091440650914506209177
:103940004C0630914D064217530719F4E1E0E0931D
:10395000860540917205E42FF0E0EE50FC4F208187
:1039600030E030933B0620933A06DF01A058BF4F6A
:103970002C9130E03093390620933806F39520815E
:1039800030E030933D0620933C064423B9F0E42F09
:10399000F0E0DF01AF50BC4F2C91EE50FC4F208384
:1039A000ED01C058DF4F2881EF01C058DF4F288359
:1039B000B3952C91F39520834150E7CF8093F20388
:1039C0008091400680937204809144068093F204B3
:1039D0000E94B2100E94B4080C94D71321E00E94F8
:1039E000381181EA92E00E94791160914806709145
:1039F0004906072E000C880B990B0E94D71189E706
:103A000092E00E948B118CEA92E00E947911609101
:103A10004A0670914B06072E000C880B990B0E94EA
:103A2000D71189E792E00E948B1187EB92E00E9408
:103A3000791160914C0670914D06072E000C880B91
:103A4000990B0E94D71189E792E00E948B1185ECB7
:103A500092E00E948B11DBCDCD2B09F051CE39CEF7
:103A6000CF93DF9310929E0510929D0588EE93E010
:103A7000A0E0B0E080939F059093A005A093A105DE
:103A8000B093A2058CE092E090939C0580939B05F7
:103A900085EC90E09093A8058093A70584EC90E0D6
:103AA0009093AA058093A90580EC90E09093AC05D3
:103AB0008093AB0581EC90E09093AE058093AD05CB
:103AC00082EC90E09093B0058093AF0586EC90E097
:103AD0009093B2058093B1051092B4051092B5058C
:103AE0001092B6051092B705C3E3D0E0D0939F06BD
:103AF000C0939E0684E390E09093A1068093A00675
:103B00008DE290E09093A3068093A20682E090E07D
:103B10009093A5068093A40661E083E30E941F0AA8
:103B200061E08091A0060E941F0A61E08091A206D8
:103B30000E941F0A61E08091A2060E94F009D093C2
:103B40009F06C0939E06EEE5F6E0119286E0EE3900
:103B5000F807D9F7C0E0D0E08091A4069091A506BF
:103B6000C817D907ACF520E04FE0BE018EE496E01F
:103B70000E94DD0AD7FD0EC08091A4069091A50693
:103B8000C817D9073CF427E04BE0BE018EE496E06D
:103B90000E94DD0A20E049E0BE018EE496E00E942A
:103BA000DD0ABE018EE496E00E94600BD7FD0EC0D8
:103BB0008091A4069091A506C817D9073CF420E08F
:103BC0004CE0BE018EE496E00E94DD0A2196C4CF4F
:103BD0008FEF9FEF909349068093480690934B0692
:103BE00080934A0690934D0680934C0610924106AE
:103BF000109240061092430610924206109245061B
:103C0000109244061092470610924606109239060A
:103C10001092380610923B0610923A0610923D061A
:103C200010923C0610923F0610923E06DF91CF9113
:103C300008958F929F92AF92BF92CF92DF92EF92B0
:103C4000FF92CF93DF93EC01688179818A819B8118
:103C5000611571058105910521F464E279ED8BE52B
:103C600097E02DE133EF41E050E038D049015A01AF
:103C70009B01AC01A7EAB1E44DD06B017C01ACEE35
:103C8000B4EFA501940152D0DC01CB018C0D9D1D38
:103C9000AE1DBF1DB7FF03C00197A109B0488883BF
:103CA0009983AA83BB83BC01CD019F77DF91CF911C
:103CB000FF90EF90DF90CF90BF90AF909F908F904C
:103CC0000895B7CF84E092E0B4CF6093040270937C
:103CD000050280930602909307020895052E97FB34
:103CE00016F400940FD057FD05D024D007FC02D065
:103CF00046F408C050954095309521953F4F4F4F61
:103D00005F4F089590958095709561957F4F8F4F87
:103D10009F4F089531D0A59F900DB49F900DA49F03
:103D2000800D911D11240895B7FFF4CFF3DF821B9E
:103D3000930B0895A1E21A2EAA1BBB1BFD010DC017
:103D4000AA1FBB1FEE1FFF1FA217B307E407F5074B
:103D500020F0A21BB30BE40BF50B661F771F881F27
:103D6000991F1A9469F760957095809590959B01BD
:103D7000AC01BD01CF010895A29FB001B39FC00166
:103D8000A39F700D811D1124911DB29F700D811D87
:103D90001124911D089597FB072E16F4009406D068
:103DA00077FD08D013D007FC05D03EF4909581959F
:103DB0009F4F0895709561957F4F0895EE0FFF1FF7
:103DC000881F8BBF0790F691E02D1994AA1BBB1B8F
:103DD00051E107C0AA1FBB1FA617B70710F0A61B0B
:103DE000B70B881F991F5A95A9F780959095BC012C
:103DF000CD01089581E090E0F89400C0F894FFCFE1
:103E0000F401010001000000000000004D08B707A8
:103E1000E60793081708F50709083E3E3E3E3E3E7A
:103E20003E70726573696F6E652028535441525419
:103E30002920706F722033207365672F7665636564
:103E40007321207061726120696E69636961723CDF
:103E50003C3C3C3C3C3C3C290046464646003E3E01
:103E60003E76656C6F63696461643A003E3E3E7005
:103E7000756E746F733A000D0A006D6F646F205099
:103E800041555341204F4E006D6F646F2050415596
:103E90005341204F4646006D6F646F20455849548A
:103EA00000436F6D696461526F773A00436F6D69CB
:103EB0006461436F6C3A00436F6D6964614D617476
:103EC00072697A3A002D2D2D2D2D2D2D2D2D2D2D74
:103ED0002D2D2D2D2D2D2D2D2D2D2D2D2D00696EC2
:103EE000696369616E646F206A7565676F20534E00
:103EF000414B452E2E2E2E2E003E3E3E3E3E3E3E59
:103F000070726573696F6E6520285354415254294D
:103F100020706F722033207365672F766563657339
:103F20002120706172612073656C656363696F6ED7
:103F30006172206C612076656C6F63696461643CBA
:103F40003C3C3C3C3C3C3C290053656C65636369EC
:103F50006F6E61722076656C6F6369646164005690
:103F6000656C6F63696461642073656C6563636924
:103F70006F6E616461004E6976656C2073656C6577
:103F80006363696F6E64616F3A200056656C6F639E
:103F90006964616420004E6976656C3A003E3E3E7D
:103FA0003E3E3E3E70726573696F6E6520535441AC
:103FB000525420706F722033207365672F766563CB
:103FC000657321207061726120696E696369617235
:103FD00020656C206A7565676F3C3C3C3C3C3C3C12
:043FE0003C29000078
:020000023000CC
:10E000000D9489F10D94B2F10D94B2F10D94B2F129
:10E010000D94B2F10D94B2F10D94B2F10D94B2F1F0
:10E020000D94B2F10D94B2F10D94B2F10D94B2F1E0
:10E030000D94B2F10D94B2F10D94B2F10D94B2F1D0
:10E040000D94B2F10D94B2F10D94B2F10D94B2F1C0
:10E050000D94B2F10D94B2F10D94B2F10D94B2F1B0
:10E060000D94B2F10D94B2F10D94B2F10D94B2F1A0
:10E070000D94B2F10D94B2F10D94B2F10D94B2F190
:10E080000D94B2F10D94B2F10D94B2F10D94B2F180
:10E090000D94B2F10D94B2F10D94B2F10D94B2F170
:10E0A0000D94B2F10D94B2F10D94B2F10D94B2F160
:10E0B0000D94B2F10D94B2F10D94B2F10D94B2F150
:10E0C0000D94B2F10D94B2F10D94B2F10D94B2F140
:10E0D0000D94B2F10D94B2F10D94B2F10D94B2F130
:10E0E0000D94B2F141546D656761323536300041AF
:10E0F000726475696E6F206578706C6F72657220DE
:10E1000073746B3530305632206279204D4C530099
:10E11000426F6F746C6F616465723E004875683F52
:10E1200000436F6D70696C6564206F6E203D200048
:10E130004350552054797065202020203D20005FF9
:10E140005F4156525F415243485F5F3D2000415658
:10E1500052204C696243205665723D20004743437C
:10E160002056657273696F6E203D20004350552024
:10E1700049442020202020203D20004C6F7720663D
:10E18000757365202020203D20004869676820665F
:10E190007573652020203D200045787420667573D6
:10E1A00065202020203D20004C6F636B2066757336
:10E1B000652020203D20004D617220203720323024
:10E1C000313300312E362E3800342E332E350056A2
:10E1D00023202020414444522020206F7020636F70
:10E1E00064652020202020696E73747275637469E1
:10E1F0006F6E2061646472202020496E74657272B3
:10E20000757074006E6F20766563746F7200726A49
:10E210006D702020006A6D70200057686174207056
:10E220006F72743A00506F7274206E6F7420737541
:10E2300070706F72746564004D7573742062652030
:10E2400061206C6574746572002000577269747483
:10E25000696E672045450052656164696E672045B7
:10E26000450045452065727220636E743D00504F35
:10E27000525400303D5A65726F2061646472003FF1
:10E280003D43505520737461747300403D454550C3
:10E29000524F4D207465737400423D426C696E6B41
:10E2A000204C454400453D44756D70204545505215
:10E2B0004F4D00463D44756D7020464C415348001B
:10E2C000483D48656C70004C3D4C69737420492F83
:10E2D0004F20506F72747300513D51756974005234
:10E2E0003D44756D702052414D00563D73686F7707
:10E2F00020696E7465727275707420566563746FF0
:10E30000727300593D506F727420626C696E6B00BD
:10E310002A0011241FBECFEFD1E2DEBFCDBF01E046
:10E320000CBF12E0A0E0B2E0EEE1FDEF03E00BBFB6
:10E3300002C007900D92A030B107D9F712E0A0E01B
:10E34000B2E001C01D92AE30B107E1F70F9460F367
:10E350000D948DFE01E20EBF0FEF0DBF11241FBE05
:10E360000D9460F30D9400F020E030E040ED57E0B4
:10E3700005C0FA013197F1F72F5F3F4F2817390792
:10E38000C0F308959C01260F311DC901A0E0B0E043
:10E390002F5F3F4FABBFFC018791882361F08093D3
:10E3A000C6008091C00086FFFCCF8091C0008064D1
:10E3B0008093C000EACF08958DE08093C6008091DD
:10E3C000C00086FFFCCF8091C00080648093C000B5
:10E3D0008AE08093C6008091C00086FFFCCF8091C8
:10E3E000C00080648093C00008950F94C2F10F9420
:10E3F000DCF10895FC019081992359F09093C600B7
:10E400008091C00086FFFCCF8091C0008064809323
:10E41000C0003196992379F70895282F982F929567
:10E420009F70892F805D8A3308F0895F8093C600D2
:10E430008091C00086FFFCCF8091C00080648093F3
:10E44000C000822F8F70982F905D9A3308F0995FEB
:10E450009093C6008091C00086FFFCCF8091C000E1
:10E4600080648093C00008959C01FB01853691056E
:10E470001CF46330710594F0C90164E670E00F94F8
:10E480002EFE605D7F4F6093C6008091C00086FFC6
:10E49000FCCF8091C00080648093C0002B30310598
:10E4A00014F43297B4F0C90164E670E00F942EFEC4
:10E4B0006AE070E00F942EFE605D7F4F6093C600AF
:10E4C0008091C00086FFFCCF8091C0008064809363
:10E4D000C000C9016AE070E00F942EFEC0968093E0
:10E4E000C6008091C00086FFFCCF8091C000806490
:10E4F0008093C00008951F93182F8EE692EE60E07F
:10E500000F94C2F11093C6008091C00086FFFCCF2B
:10E510008091C00080648093C0000F94DCF11F9153
:10E5200008952F923F924F925F926F927F928F92B7
:10E530009F92AF92BF92CF92DF92EF92FF920F9392
:10E540001F93DF93CF93CDB7DEB762970FB6F894E2
:10E55000DEBF0FBECDBF382E622ECA01DB015C01CB
:10E560006D01772420E2222E2E010894411C511CBB
:10E570008BC081E0A81680E0B80681E0C80680E084
:10E58000D80628F0C601AA27BB270F940DF2BB2797
:10E59000AD2D9C2D8B2D0F940DF28A2D0F940DF225
:10E5A0002092C6008091C00086FFFCCF8091C00001
:10E5B00080648093C0009DE29093C6008091C0006B
:10E5C00086FFFCCF8091C00080648093C0002092C1
:10E5D000C6008091C00086FFFCCF8091C00080649F
:10E5E0008093C00019828601750188249924A1E0D6
:10E5F0003A1651F03A1620F0B2E03B1661F409C029
:10E600000BBFF701779007C0C7010F9477FE782EF4
:10E6100002C0F7017080872D0F940DF22092C60082
:10E620008091C00086FFFCCF8091C0008064809301
:10E63000C000872D8052F401EF70F0708F3520F408
:10E64000E40DF51D708204C0E40DF51D8EE280839B
:10E650000894E11CF11C011D111D0894811C911CE2
:10E6600090E18916910409F0C2CF80E190E0A0E02A
:10E67000B0E0A80EB91ECA1EDB1E198AC2010F9493
:10E68000FAF10F94DCF16A94662009F072CF629679
:10E690000FB6F894DEBF0FBECDBFCF91DF911F91B3
:10E6A0000F91FF90EF90DF90CF90BF90AF909F9031
:10E6B0008F907F906F905F904F903F902F90089534
:10E6C0002F923F924F925F926F927F928F929F9282
:10E6D000AF92BF92CF92DF92EF92FF920F931F9370
:10E6E000DF93CF93CDB7DEB7CD53D1400FB6F894BB
:10E6F000DEBF0FBECDBF01E20EBF0FEF0DBF94B75F
:10E70000F894A89514BE80916000886180936000A1
:10E7100010926000789493FF05C0E0910002F091A0
:10E7200001021995279A2F9A8091C00082608093E8
:10E73000C00080E18093C40088E18093C1000000A4
:10E74000EE24FF24870144E0A42EB12CCC24DD2448
:10E7500024C0C5010197F1F70894E11CF11C011DCB
:10E76000111D21E2E2162EE4F20620E0020720E06D
:10E77000120718F031E0C32ED12CC801B70127ECE5
:10E780003BE140E050E00F9441FE611571058105C9
:10E79000910519F485B1805885B98091C00087FD35
:10E7A00003C0C114D104A9F2A6014F5F5F4FC25E3E
:10E7B000DE4F59834883CE51D140C25EDE4F8881FF
:10E7C0009981CE51D140019711F00D9410FEC05D9A
:10E7D000DE4F19821882C053D14060E0C15DDE4F28
:10E7E0001882CF52D14088249924C35DDE4F19820C
:10E7F0001882CD52D140C05EDE4F188219821A8233
:10E800001B82C052D140CE5CDE4F188219821A8220
:10E810001B82C253D140EE24FF2487010BBFF701B6
:10E8200007911691C45CDE4F19830883CC53D14005
:10E830000D940BFEC25EDE4F28813981CE51D1404E
:10E840002130310509F52091C600C25EDE4F1982E4
:10E850001882CE51D14022C02F5F3F4F4F4F5F4FA4
:10E86000213082E138078AE7480780E0580780F0C6
:10E87000C45CDE4FE881F981CC53D140EF5FFF4F9C
:10E8800019F0EE27FF27099420E030E040E050E047
:10E890008091C00087FFE0CF2091C600C35DDE4FAE
:10E8A00048815981CD52D1404F5F5F4FC35DDE4FEC
:10E8B00059834883CD52D140213209F063C64A3092
:10E8C000510508F05FC60894811C911C53E0851621
:10E8D000910409F059C600E010E018C081E280936D
:10E8E000C6008091C00086FFFCCF8091C00080648C
:10E8F0008093C0002F5F3F4F2931310579F70F9486
:10E90000DCF10F5F1F4F0530110519F020E030E0FA
:10E91000E5CF10920A0210920B0210920C02109294
:10E920000D02109206021092070210920802109235
:10E930000902109202021092030210920402109235
:10E9400005028FEE90EE60E00F94F5F180E191EE1C
:10E9500060E00F94C2F18091C00087FFFCCF9091DE
:10E96000C600903608F09F759032B8F09093C600BC
:10E970008091C00086FFFCCF8091C00080648093AE
:10E98000C000A0E2A093C6008091C00086FFFCCF2B
:10E990008091C00080648093C000983409F4D7C18E
:10E9A0009934B8F4923409F459C1933458F490333B
:10E9B00019F1903308F4E3C59F33A1F1903409F0C5
:10E9C000DEC5BDC0953409F470C1963409F0D7C5D1
:10E9D00098C1923509F42BC2933538F49C3409F46C
:10E9E000F5C1913509F0CBC518C2963509F445C279
:10E9F000993509F0C4C567C483E792EE62E00F94CD
:10EA0000F5F110920602109207021092080210927D
:10EA1000090210920A0210920B0210920C0210923C
:10EA20000D0213C18FE792EE62E00F94F5F18FEEC5
:10EA300090EE60E00F94F5F181E291EE60E00F94CA
:10EA4000C2F187EB91EE60E00F94F5F180E391EE77
:10EA500060E00F94C2F184EE90EE60E00F94F5F167
:10EA60008FE391EE60E00F94C2F186E090E061E008
:10EA700070E00F9434F20F94DCF18DE591EE60E0DC
:10EA80000F94C2F189EC91EE60E00F94F5F18EE401
:10EA900091EE60E00F94C2F183EC91EE60E00F9490
:10EAA000F5F18CE691EE60E00F94C2F18EE10F94E7
:10EAB0000DF288E90F940DF281E00F940DF20F949E
:10EAC000DCF18BE791EE60E00F94C2F119E0E0E039
:10EAD000F0E010935700E4918E2F0F940DF20F94F5
:10EAE000DCF18AE891EE60E00F94C2F1E3E0F0E03F
:10EAF00010935700E4918E2F0F940DF20F94DCF1D8
:10EB000089E991EE60E00F94C2F1E2E0F0E0109349
:10EB10005700E4918E2F0F940DF20F94DCF188EAE8
:10EB200091EE60E00F94C2F1E1E0F0E01093570045
:10EB30001491812F0F940DF20F94DCF107CF8BE825
:10EB400092EE62E00F94F5F18BE492EE60E00F94A8
:10EB5000F5F10F94DCF100E010E019C0C8016F2D51
:10EB60000F947FFEFF2031F489E492EE60E00F9471
:10EB7000C2F10BC0F092C6008091C00086FFFCCFAE
:10EB80008091C00080648093C0000F5F1F4FC80158
:10EB900081519F41A0E0B0E0ABBFFC01F790BAE229
:10EBA000FB1621F0E2E000301E07C1F60F94DCF105
:10EBB0000F94DCF187E592EE60E00F94F5F10F948D
:10EBC000DCF1CC24DD2400E010E01EC0C8010F946D
:10EBD00077FEF82E882331F489E492EE60E00F94FA
:10EBE000C2F10BC08093C6008091C00086FFFCCFAD
:10EBF0008091C00080648093C000FE1419F00894D6
:10EC0000C11CD11C0F5F1F4FC80181519F41A0E063
:10EC1000B0E0ABBFFC01E790FAE2EF1621F022E092
:10EC20000030120799F60F94DCF10F94DCF182E6C4
:10EC300092EE60E00F94C2F1C60161E070E00F94C3
:10EC400034F20F94DCF10F94DCF110920202109276
:10EC50000302109204021092050278CE89E992EE26
:10EC600062E00F94F5F1279A2F9A16C02F9880E052
:10EC700090E0E0EDF7E03197F1F7019684369105E9
:10EC8000C1F72F9A80E090E0E0EDF7E03197F1F7DF
:10EC9000019684369105C1F78091C00087FFE6CFC9
:10ECA0008091C00087FFFCCF64C485EA92EE62E0E9
:10ECB0000F94F5F140910202509103026091040219
:10ECC0007091050281E020E10F9491F2809102029F
:10ECD00090910302A0910402B091050280509F4FD1
:10ECE000AF4FBF4F8093020290930302A0930402A0
:10ECF000B093050280509041A040B04008F426CE69
:10ED0000A4CF83EB92EE62E00F94F5F140910602FE
:10ED100050910702609108027091090280E020E1A1
:10ED20000F9491F28091060290910702A09108023F
:10ED3000B091090280509F4FAF4FBF4F80930602A2
:10ED400090930702A0930802B0930902FFCD80ECD4
:10ED500092EE62E00F94F5F183E792EE60E00F949B
:10ED6000F5F18FE792EE60E00F94F5F18BE892EE0B
:10ED700060E00F94F5F189E992EE60E00F94F5F10F
:10ED800085EA92EE60E00F94F5F183EB92EE60E09D
:10ED90000F94F5F180EC92EE60E00F94F5F187ECC2
:10EDA00092EE60E00F94F5F188ED92EE60E00F9442
:10EDB000F5F18FED92EE60E00F94F5F18AEE92EEB0
:10EDC00060E00F94F5F183E093EEBDCD87EC92EE19
:10EDD00062E00F94F5F181E40F947BF282E40F94EA
:10EDE0007BF283E40F947BF284E40F947BF285E45E
:10EDF0000F947BF286E40F947BF287E40F947BF20E
:10EE000088E40F947BF28AE40F947BF28BE40F94F6
:10EE10007BF28CE40F947BF299CD88ED92EE62E068
:10EE20000F94F5F1772473948824992409C48FED05
:10EE300092EE62E00F94F5F140910A0250910B02BC
:10EE400060910C0270910D0282E020E10F9491F22A
:10EE500080910A0290910B02A0910C02B0910D02D8
:10EE600080509F4FAF4FBF4F80930A0290930B0289
:10EE7000A0930C02B0930D0269CD8AEE92EE62E08F
:10EE80000F94F5F184EE90EE60E00F94F5F18FECC5
:10EE900091EE60E00F94F5F1662477244301CC5D98
:10EEA000DE4F19821882C452D140D401C301B695F5
:10EEB000A79597958795CA5DDE4F88839983AA8326
:10EEC000BB83C652D140CC5DDE4FA881B981C4520C
:10EED000D1401196CC5DDE4FB983A883C452D14096
:10EEE000CD0162E070E00F9434F2B0E2B093C6005E
:10EEF0008091C00086FFFCCF8091C0008064809329
:10EF0000C000EDE2E093C6008091C00086FFFCCF18
:10EF10008091C00080648093C000F0E2F093C6004E
:10EF20008091C00086FFFCCF8091C00080648093F8
:10EF3000C000CA5DDE4FE880F9800A811B81C6529D
:10EF4000D140BB27A12F902F8F2D0F940DF2CA5DBA
:10EF5000DE4F8881C652D1400F940DF2B0E2FB2EF5
:10EF6000F092C6008091C00086FFFCCF8091C00067
:10EF700080648093C0000DE30093C6008091C000C0
:10EF800086FFFCCF8091C00080648093C00010E2B7
:10EF90001093C6008091C00086FFFCCF8091C00016
:10EFA00080648093C0008BBEF3012791C65DDE4F65
:10EFB0002883CA52D140A22EBB24CC24DD2408943D
:10EFC000611C711C811C911C8BBEF3018791282E42
:10EFD0003324442455240894611C711C811C911C09
:10EFE0008BBEF3013791C55DDE4F3883CB52D140E4
:10EFF0000894611C711C811C911C8BBEF30147910C
:10F00000C45DDE4F4883CC52D140ADEFEA2EAFEF66
:10F01000FA2EAFEF0A2FAFEF1A2F6E0C7F1C801E57
:10F02000911E142D032DF22CEE24EA0CFB1C0C1D5A
:10F030001D1D0F940DF220E22093C6008091C000A8
:10F0400086FFFCCF8091C00080648093C000C65DC5
:10F05000DE4F8881CA52D1400F940DF230E23093D6
:10F06000C6008091C00086FFFCCF8091C000806404
:10F070008093C000C45DDE4F8881CC52D1400F9494
:10F080000DF240E24093C6008091C00086FFFCCFA5
:10F090008091C00080648093C000C55DDE4F888190
:10F0A000CB52D1400F940DF250E25093C6008091A4
:10F0B000C00086FFFCCF8091C00080648093C000B8
:10F0C0008FEFE8168FEFF80680E0080780E018075A
:10F0D00031F484E092EE60E00F94C2F1DFC0D80119
:10F0E000C7018070907CA070B0708050904CA040A0
:10F0F000B040D1F52FEF3FE340E050E0E222F322B1
:10F1000004231523CA5DDE4FA880B980CA80DB8046
:10F11000C652D140AE0CBF1CC01ED11EAA0CBB1CD7
:10F12000CC1CDD1C8EE092EE60E00F94C2F1BB2798
:10F13000A12F902F8F2D0F940DF28E2D0F940DF285
:10F1400030E23093C6008091C00086FFFCCF8091F2
:10F15000C00080648093C0004EE34093C60080915D
:10F16000C00086FFFCCF87C08EE09EEFA0E0B0E03D
:10F17000E822F9220A231B239CE0E91694E9F90608
:10F1800090E0090790E0190709F088C0C45DDE4FE0
:10F19000A881CC52D140EA2EFF2400E010E0102FCD
:10F1A0000F2DFE2CEE24C55DDE4FB881CB52D14031
:10F1B000EB0EF11C011D111DD601C501817090706F
:10F1C000A070B070DC0199278827E80EF91E0A1F8D
:10F1D0001B1F20EF30E040E050E0A222B322C42207
:10F1E000D52241E1AA0CBB1CCC1CDD1C4A95D1F7F1
:10F1F000EA0CFB1C0C1D1D1D81E090E0A0E0B0E0BE
:10F20000282239224A225B2235E1220C331C441C7D
:10F21000551C3A95D1F7E20CF31C041D151D57013E
:10F220006801AA0CBB1CCC1CDD1C85E192EE60E0E1
:10F230000F94C2F1C801AA27BB270F940DF2BB2778
:10F24000A12F902F8F2D0F940DF28E2D0F940DF274
:10F2500090E29093C6008091C00086FFFCCF809121
:10F26000C00080648093C000AEE3A093C60080918C
:10F27000C00086FFFCCF8091C00080648093C000F6
:10F28000C601AA27BB270F940DF2BB27AD2D9C2DDD
:10F290008B2D0F940DF28A2D0F940DF20F94DCF14B
:10F2A000CC5DDE4FE881F981C452D140F99709F471
:10F2B0004DCBF4E0EF2EF12C012D112D6E0C7F1CA7
:10F2C000801E911EF2CD83E093EE62E00F94F5F183
:10F2D0008AE192EE60E00F94C2F18091C00087FF56
:10F2E000FCCF1091C6001F751093C6008091C0001E
:10F2F00086FFFCCF8091C00080648093C0000F9493
:10F30000DCF1812F81548A3108F036C1163409F4BA
:10F3100095C0173490F4133409F44EC0143430F40B
:10F320001134F1F0123409F01DC130C0143409F465
:10F3300059C0153409F016C16BC01A3409F4C4C0A1
:10F340001B3438F4173409F48FC0183409F00AC19B
:10F35000A1C01B3409F4D2C01C3409F003C1E8C0B9
:10F360008FEF81B90DC082B1809582B980E090E0C5
:10F37000E0EDF7E03197F1F70196883C9105C1F790
:10F380008091C00087FFEFCF12B8EFC08FEF84B934
:10F390000DC085B1809585B980E090E0E0EDF7E0A3
:10F3A0003197F1F70196883C9105C1F78091C00033
:10F3B00087FFEFCF15B8D9C08FEF87B90DC088B1DF
:10F3C000809588B980E090E0E0EDF7E03197F1F7C3
:10F3D0000196883C9105C1F78091C00087FFEFCF6F
:10F3E00018B8C3C08FEF8AB90DC08BB180958BB9A7
:10F3F00080E090E0E0EDF7E03197F1F70196883C8E
:10F400009105C1F78091C00087FFEFCF1BB8ADC059
:10F410008FEF8DB90DC08EB180958EB980E090E0F0
:10F42000E0EDF7E03197F1F70196883C9105C1F7DF
:10F430008091C00087FFEFCF1EB897C08FEF80BBD1
:10F440000DC081B3809581BB80E090E0E0EDF7E0F6
:10F450003197F1F70196883C9105C1F78091C00082
:10F4600087FFEFCF11BA81C08FEF83BB0DC084B38C
:10F47000809584BB80E090E0E0EDF7E03197F1F714
:10F480000196883C9105C1F78091C00087FFEFCFBE
:10F4900014BA6BC08FEF809301010FC080910201FD
:10F4A00080958093020180E090E0E0EDF7E03197F5
:10F4B000F1F70196883C9105C1F78091C00087FF64
:10F4C000EDCF1092020151C08FEF809304010FC065
:10F4D0008091050180958093050180E090E0E0ED4A
:10F4E000F7E03197F1F70196883C9105C1F78091DB
:10F4F000C00087FFEDCF1092050137C08FEF8093DA
:10F5000007010FC08091080180958093080180E079
:10F5100090E0E0EDF7E03197F1F70196883C910536
:10F52000C1F78091C00087FFEDCF109208011DC088
:10F530008FEF80930A010FC080910B01809580931B
:10F540000B0180E090E0E0EDF7E03197F1F70196F4
:10F55000883C9105C1F78091C00087FFEDCF1092E4
:10F560000B0103C085E292EEEEC98091C00087FFD7
:10F57000FCCF8091C600EAC988E392EEE4C98CE131
:10F5800091EEE1C988249924933011F1943028F444
:10F59000913089F09230B8F408C0953061F195301F
:10F5A000F0F0963009F048C043C02B3109F042C951
:10F5B00091E06BE13FC96227C15DDE4F2883CF52E6
:10F5C000D14092E037C9B22FA0E0622793E032C960
:10F5D000822F90E0A82BB92B622794E02BC92E3004
:10F5E00009F039C3622795E0C05DDE4F19821882A9
:10F5F000C053D1401FC9E1E0F0E0EC0FFD1FC05D3A
:10F60000DE4F08811981C053D140E00FF11F2083E4
:10F610000F5F1F4FC05DDE4F19830883C053D14079
:10F6200062270A171B0709F005C9D80196E002C92D
:10F63000261709F010C303C0973009F0FBC87724E0
:10F640009981933109F412C19431C8F4963009F4C8
:10F65000D8C0973050F4923009F406C1933009F4C1
:10F660006DC0913009F059C253C0913109F477C08F
:10F67000923108F0BBC0903109F04FC2F5C098310B
:10F6800009F487C0993150F4953109F4EFC09531F0
:10F6900008F4C6C1963109F040C2C2C19A3109F4DA
:10F6A0006CC09A3108F491C09B3109F45BC09D3164
:10F6B00009F033C29D81903359F48F81882311F46E
:10F6C0009EE11CC0813011F091E018C098E916C08D
:10F6D000892F807591F0903539F4E0E0F0E089E011
:10F6E0008093570094910AC0983539F4E3E0F0E034
:10F6F00089E080935700949101C090E01A821B82A8
:10F700008D818C831D829E831F8227E030E009C299
:10F710001A8288E08B8381E48C8386E58D8382E581
:10F720008E8389E48F8383E5888780E589878FE5E9
:10F730008A8782E38B872BE030E0F3C18A818139AD
:10F7400041F0823941F0803911F48FE005C080E04A
:10F7500003C082E001C08AE01A828B8344C0772410
:10F76000739482C08D81882311F48EE12CC0813086
:10F7700011F081E028C088E926C01A82E1E0F0E0BB
:10F7800089E08093570084918B831C8224E030E0D1
:10F79000C8C18B81803589F48C81883039F4E2E0EE
:10F7A000F0E089E08093570084910DC0E0E0F0E044
:10F7B00089E080935700849106C0E3E0F0E089E09F
:10F7C0008093570084911A82DFCF8D81836C99E0FA
:10F7D000E1E0F0E0082E90935700E89507B600FCB2
:10F7E000FDCF1A821B8223E030E09BC180EC8A832C
:10F7F000CE5CDE4F188219821A821B82C253D1401E
:10F800008EC18A8190E0A0E0B0E0582F44273327D2
:10F8100022278B8190E0A0E0B0E0DC0199278827C7
:10F82000282B392B4A2B5B2B8D8190E0A0E0B0E098
:10F83000282B392B4A2B5B2B8C8190E0A0E0B0E089
:10F84000BA2FA92F982F8827282B392B4A2B5B2BCF
:10F85000220F331F441F551FC05EDE4F288339839C
:10F860004A835B83C052D1401A8259C13A81C95C34
:10F87000DE4F3883C753D140CA5CDE4F1882C6536F
:10F88000D1408B81C82EDD24CA5CDE4F488159816E
:10F89000C653D140C42AD52A933109F082C0CE5C28
:10F8A000DE4F88819981AA81BB81C253D1408050AB
:10F8B000904CA340B04030F583E0CE5CDE4FE88052
:10F8C000F9800A811B81C253D140F70100935B008C
:10F8D00080935700E89507B600FCFDCFCE5CDE4F65
:10F8E000088119812A813B81C253D14000501F4FAA
:10F8F0002F4F3F4FCE5CDE4F088319832A833B8313
:10F90000C253D140C05EDE4F488159816A817B81FC
:10F91000C052D140DE011B9631E08C9111962C91A2
:10F9200011971296C75CDE4F2883C953D140C85C3B
:10F93000DE4F1882C853D14090E0C85CDE4FE881AA
:10F94000F981C853D1408E2B9F2B0C01FA01609393
:10F950005B0030935700E89511244E5F5F4F6F4F67
:10F960007F4F0EEFE02E0FEFF02ECE0CDF1CC114F8
:10F97000D10499F685E0C05EDE4F088119812A81A5
:10F980003B81C052D140F80120935B008093570027
:10F99000E89507B600FCFDCF81E180935700E8951C
:10F9A00035C0C05EDE4F88819981AA81BB81C0527B
:10F9B000D140B695A795979587957C018601ABE0D8
:10F9C000AA2EB12CAC0EBD1E0BC0D5016D915D01F0
:10F9D000C7010F947FFE0894E11CF11C01501040F8
:10F9E0000115110591F7A60160E070E0440F551F65
:10F9F000661F771FC05EDE4FE880F9800A811B8199
:10FA0000C052D1404E0D5F1D601F711F1A82C05E33
:10FA1000DE4F488359836A837B83C052D1407FC0C5
:10FA2000FA80C55CDE4FF882CB53D140C65CDE4F16
:10FA30001882CA53D1408B81C82EDD24C65CDE4FAC
:10FA400008811981CA53D140C02AD12A1A828981DA
:10FA5000BE016D5F7F4F843121F59601C05EDE4FA0
:10FA6000E880F9800A811B81C052D1400BBFF701A9
:10FA700087919691DB018C9311969C936E5F7F4FDB
:10FA8000D801C7010296A11DB11DC05EDE4F88835B
:10FA90009983AA83BB83C052D14022503040F1F6F3
:10FAA00036C0C05EDE4F288139814A815B81C052F9
:10FAB000D1400894C108D108760100E010E0089414
:10FAC000C11CD11C0894E11CF11C011D111DE20E8A
:10FAD000F31E041F151F21BDBB27A52F942F832FB5
:10FAE00082BD2F5F3F4F4F4F5F4FF89A80B5DB01CC
